:020000040800F2
:1000000000280020491600089916000899160008D3
:1000100099160008991600089916000800000000BB
:10002000000000000000000000000000310F000888
:100030009916000800000000910F0008D50F000875
:1000400099160008991600089916000899160008D4
:100050009916000899160008551200087112000838
:100060008D120008A9120008C51200089916000890
:1000700099160008991600089916000899160008A4
:100080009916000899160008991600089916000894
:10009000991600089916000899160008E112000840
:1000A0009916000899160008991600089916000874
:1000B0009916000899160008991600089916000864
:1000C0009916000899160008991600089916000854
:1000D000991600088113000891130008A113000865
:1000E0007113000899160008000000009916000816
:1000F0009916000899160008991600089916000824
:100100009916000899160008991600089916000813
:100110009916000899160008991600089916000803
:1001200099160008991600089916000899160008F3
:1001300010B5054C237833B9044B13B10448AFF321
:1001400000800123237010BD080000200000000083
:100150000017000808B5034B1BB103490348AFF370
:10016000008008BD000000000C00002000170008FF
:1001700000F1080343604FF0FF328260C360036107
:1001800000230360704700230361704730B40D689B
:10019000B5F1FF3F11D000F108031C465B681A68F7
:1001A000AA42FAD963684B6099608C60616008610B
:1001B00003680133036030BC70470469F2E70369E8
:1001C000416882688A60416851605A68824206D0FC
:1001D000002202611A68013A1A6018687047826842
:1001E0005A60F5E710B5044600F0B4FEA26BE36B6D
:1001F0009A4204D0002400F0BDFE204610BD012428
:10020000F9E710B5044600F0A5FEA36B23B901245D
:1002100000F0B0FE204610BD0024F9E770B504469A
:100220001646856B026CEAB166B9406801F05AFA6D
:10023000226C636813446360A268934212D32368FC
:1002400063600FE0C06801F04DFA226C5142E36830
:100250009B1AE3602268934202D2A3680B44E360D6
:10026000022E03D00135A563002070BD002DF9D00A
:10027000013DF7E738B5054600F06CFE95F84540BE
:1002800064B201E0013C64B2002C0ADD6B6A43B148
:1002900005F1240000F064FD0028F3D000F00AFE10
:1002A000F0E7FF2385F8453000F064FE00F052FED1
:1002B00095F8444064B201E0013C64B2002C0ADDD0
:1002C0002B6943B105F1100000F04AFD0028F3D07E
:1002D00000F0F0FDF0E7FF2385F8443000F04AFE1F
:1002E00038BD002844D038B50D460446C36B002BFA
:1002F00040D0026C0021A3FB023212B919B10020D8
:1003000039E00121FAE700F025FE2368E26B216C59
:1003100001FB0230A0600020A0636360013A02FB91
:100320000133E360FF2384F8443084F84530B5B9E5
:1003300023691BB900F01EFE01201CE004F110002F
:1003400000F00EFD0028F5D04FF0E0234FF0805272
:10035000C3F8042DBFF34F8FBFF36F8FEAE704F1AB
:100360001000FFF705FF04F12400FFF701FFE1E7AC
:1003700000207047002038BD10B5034602980C4697
:1003800031B90060C36304640121FFF7AAFF10BD07
:100390000260F7E7F0B583B0E0B10C4617460546BA
:1003A0000023A0FB04129AB9C3B904FB05F010F1B5
:1003B000490F15D8483000F0AFFE064658B10090FE
:1003C0003B4600F1480221462846FFF7D5FF02E0F0
:1003D0000123E9E70026304603B0F0BD0026FAE726
:1003E0000026F8E7F0B585B004460F4601921D4699
:1003F00000263DE02A4639462046FFF70FFF636A94
:100400007BB948B14FF0E0234FF08052C3F8042D80
:10041000BFF34F8FBFF36F8F00F0ACFD012005B02D
:10042000F0BD04F1240000F09BFC0028F4D04FF054
:10043000E0234FF08052C3F8042DBFF34F8FBFF37A
:100440006F8FE9E700F096FD0020E8E702A800F0D2
:10045000F5FC012619E0002384F8443021E0002354
:1004600084F8453023E02046FFF704FF00F07AFBD4
:1004700000F070FDA26BE36B9A42BBD3022DB9D0A2
:10048000019B002BDED0002EE0D000F073FD00F0C9
:10049000B1FA00F05FFD94F8440040B2B0F1FF3FC4
:1004A000D9D094F8450040B2B0F1FF3FD7D000F06A
:1004B00061FD01A902A800F0CDFCD8B92046FFF7E4
:1004C00091FE0028CFD0019904F1100000F03AFC11
:1004D0002046FFF7CFFE00F045FB0028C8D14FF0C3
:1004E000E0234FF08052C3F8042DBFF34F8FBFF3CA
:1004F0006F8FBDE72046FFF7BDFE00F033FB002005
:100500008DE730B585B00446019100253AE0013B06
:10051000A363236923B900F02DFD012005B030BD90
:1005200004F1100000F01CFC0028F4D04FF0E02390
:100530004FF08052C3F8042DBFF34F8FBFF36F8F7E
:10054000E9E700F017FD0020E8E702A800F076FCDC
:10055000012521E0002384F8443029E0002384F8B9
:1005600045302BE02046FFF785FE00F0FBFA09E05E
:100570002046FFF77FFE00F0F5FA2046FFF741FE28
:1005800000283FD100F0E6FCA36B002BBFD1019BFC
:10059000002BD6D0002DD8D000F0ECFC00F02AFAC9
:1005A00000F0D8FC94F844305BB2B3F1FF3FD1D0F7
:1005B00094F845305BB2B3F1FF3FCFD000F0DAFCE6
:1005C00001A902A800F046FC0028D1D12046FFF77F
:1005D00018FE0028C6D0019904F1240000F0B2FBF7
:1005E0002046FFF747FE00F0BDFA0028CAD14FF0C1
:1005F000E0234FF08052C3F8042DBFF34F8FBFF3B9
:100600006F8FBFE7002089E7074B1B681B6823B982
:10061000064B4FF0FF321A607047034B1B68DB68D4
:100620001A68024B1A60704728000020D40000208E
:1006300010B50446006B00F0E1FD204600F0DEFD41
:1006400010BD2DE9F84307469846089DDDF8249033
:100650000A9C266B02F18042013A06EB820626F0E4
:10066000070699B308464FF0000CBCF10F0F09D8EC
:1006700010F80C2004EB0C0383F8342012B10CF1B9
:10068000010CF2E7002384F84330042D00D904253F
:10069000E562201DFFF777FD04F11800FFF773FDF9
:1006A0002461C5F10505A56164620023636484F8D3
:1006B000483042463946304600F022FC2060B9F10D
:1006C000000F01D0C9F80040BDE8F883002384F88A
:1006D0003430DAE738B5002407E004EB84029300F5
:1006E0000E481844FFF744FD0134042CF5D90C4D95
:1006F0002846FFF73DFD0B4C2046FFF739FD0A4821
:10070000FFF736FD0948FFF733FD0948FFF730FDD5
:10071000084B1D60084B1C6038BD00BF3000002036
:10072000A8000020BC000020E00000200C010020F8
:10073000F8000020280000202C00002010B50446FE
:1007400000F008FC284A136801331360274B1B682C
:100750005BB1274B1B686BB9244B1B68DA6AE36AF1
:100760009A4207D8214B1C6004E0204B1C601368A0
:10077000012B36D01F4A136801331360E36A01224C
:100780009A401D49086802430A601C4A03EB830330
:1007900002EB83035B68A3609868E060211D416001
:1007A0009960E36A03EB8301880002EB81016161D8
:1007B00011580131115000F0DDFB0D4B1B687BB16E
:1007C0000A4B1B68DA6AE36A9A4209D24FF0E023C7
:1007D0004FF08052C3F8042DBFF34F8FBFF36F8FDC
:1007E00010BDFFF777FFC5E794000020240000202C
:1007F000F4000020A0000020A40000203000002011
:100800000F4B1B68D3B110B500F0A4FB0D4BDB6898
:10081000DC68201DFFF7D3FC0B4A1368013B136013
:10082000074A1368013B136000F0A4FB2046FFF762
:10083000FFFE034B1B68002BE6D110BD704700BFC5
:10084000980000200C0100209400002008B5FFF75C
:10085000D7FF074B1B68012BF9D94FF0E0234FF06E
:100860008052C3F8042DBFF34F8FBFF36F8FEEE7B5
:100870003000002070B504460D46234B1E68234B04
:1008800018680430FFF79BFC48B9204B1B68DB6AF3
:1008900001229A401E490B6823EA02030B60B4F15F
:1008A000FF3F0DD03444194B1B685C60A6421DD934
:1008B000184B1868154B19680431FFF767FC70BDB9
:1008C000002DEFD0144A5168104B186881601868E9
:1008D0008C68C460186804306060186804308860F0
:1008E0001B685A61136801331360E8E70B4B186803
:1008F000064B19680431FFF749FC094B1B68A342FA
:10090000DDD9074B1C60DAE720010020240000201D
:10091000A40000202C000020F80000202800002067
:10092000D40000202DE9F04385B0074688461446E0
:100930001E46900000F0F0FBF0B181464C2000F024
:10094000EBFB0546A0B1C0F83090D5B1002303936E
:1009500002950D9B01930C9B009333462246414622
:100960003846FFF76EFE2846FFF7E8FE012005E057
:10097000484600F043FCE8E74FF0FF3005B0BDE823
:10098000F0834FF0FF30F9E700B583B0124B0193CD
:1009900000230093802211491148FFF7C3FF01286B
:1009A00004D0104B1B6803B05DF804FB4FF0BF038D
:1009B00083F31188BFF36F8FBFF34F8F0A4B4FF054
:1009C000FF321A60094B01221A60094B00221A609B
:1009D00000F022FBE5E700BFD00000201817000858
:1009E0004D08000800000020D4000020F400002082
:1009F00020010020024A136801331360704700BFD2
:100A00009C000020F8B54C4B1B68002B40F08D80FB
:100A10004A4B1C6801341C60ACB1494B1B68A342B3
:100A20001ED90020474B1B68DB6A03EB83039A0047
:100A3000454B9B58012B00D90120444B1B68002BD0
:100A400078D0012076E0424A1168424B1868106065
:100A50001960414A136801331360FFF7D5FDDCE7E5
:100A6000002037E0364B4FF0FF321A60DAE7344BA4
:100A70001A60D7E7D968516042E000219962116895
:100A800001391160DA6A01219140344E37683943E7
:100A900031602D4902EB82024FEA820C8C44DCF873
:100AA00004209A609668DE6075609560DA6A02EBF1
:100AB000820C4FEA8C054E195E614D5901354FEAA3
:100AC0008C0C41F80C50DA6A1E4B1B68DB6A9A42A8
:100AD00000D301201E4B1B681B68002BC2D01C4B8F
:100AE0001B68DB68DB685A689442C0D35A699D680A
:100AF000D968A9609D684D6051681D1DA942B9D093
:100B0000002159611168013911609A6A002AB9D02F
:100B1000DE69196AB160DE694E60566803F118013A
:100B20008E42AAD1196A5160A7E70D4A13680133B2
:100B300013600020F8BD00BF9C00002020010020B1
:100B4000D4000020240000203000002024010020D8
:100B5000280000202C000020D8000020A400002045
:100B6000DC00002038B500F0F5F9434B1A68013A73
:100B70001A601B68002B7AD1404B1B683BB90024DC
:100B800076E0196A516015E0D968516021E00023D0
:100B90003B4A1268002A47D0394BDB68DB689A6A07
:100BA000D869196A8160D8694860506803F11801F2
:100BB0008842E6D0002199621168013911605A69B2
:100BC0009868D9688160986848605168181D8142AA
:100BD000DAD000215961116801391160DA6A012106
:100BE0009140284C256829432160274902EB820265
:100BF00001EB820252689A609468DC6060609060E9
:100C0000DA6A02EB8200840001EB80005861085927
:100C100001300851D96A1D4A1268D26A9142B7D38D
:100C20001B4A01211160B3E70BB1FFF7EDFC194B33
:100C30001C6884B9164B1C68D4B14FF0E0234FF008
:100C40008052C3F8042DBFF34F8FBFF36F8F012481
:100C50000EE0013C07D0FFF7D5FE0028F9D00C4B81
:100C600001221A60F5E70B4B00221A60E2E700242C
:100C700000F080F9204638BD9C0000209400002040
:100C8000E0000020A400002030000020240000200C
:100C900024010020DC00002010B550B94FF0E02303
:100CA0004FF08052C3F8042DBFF34F8FBFF36F8F07
:100CB00010BD0446FFF79EFE00212046FFF7DAFD37
:100CC000FFF750FF0028F3D1E8E70000184B1B683E
:100CD0001BB1184B01221A607047164B00221A6094
:100CE000154B1B68B3FA83F3DBB2C3F11F0313493F
:100CF00003EB830082000A4450684068506003EBB5
:100D0000830C4FEA8C0208321144884209D003EB6D
:100D100083039A00094B13445B68DA68084B1A6036
:100D20007047406862469100044A0A445060EEE70A
:100D30009C00002024010020A4000020300000209E
:100D40002400002010B50C46044B19681831FFF739
:100D50001DFA01212046FFF78DFD10BD2400002063
:100D600030B4C368DB689A6AD869196A8160D86947
:100D70004860516803F1180081423ED00021996219
:100D8000116801391160274A1268002A3BD15A695B
:100D90009868D9688160986848605168181D8142D8
:100DA0002ED000215961116801391160DA6A0121E0
:100DB00091401D4C2568294321601C4902EB8202A9
:100DC00001EB820252689A609468DC606060906017
:100DD000DA6A02EB8200840001EB80005861085956
:100DE00001300851DA6A124B1B68DB6A9A4216D945
:100DF0000120104B186030BC7047196A5160BDE784
:100E0000D9685160CDE70C4A5168D9618C681C6281
:100E1000606088609A62116801311160E2E7002029
:100E2000E9E700BF9C000020A40000203000002063
:100E30002400002024010020E0000020034B1B6858
:100E40000360034B1B684360704700BFD80000205D
:100E50002001002070B504460D4600F07BF8134BCE
:100E600019686368C81A2A68B2F1FF3F19D0104E9A
:100E70003668D4F800C0B44505D08B4203D80023AF
:100E80002B6001240EE0824203D800232B60012452
:100E900008E05B1A13442B602046FFF7CFFF0024C5
:100EA00000E0002400F066F8204670BD200100201C
:100EB000D8000020014B01221A6070472401002055
:100EC00082B0002301934FF0BF0383F31188BFF377
:100ED0006F8FBFF34F8F019B002BFCD002B0704788
:100EE00006480068006880F3088862B661B6BFF300
:100EF0004F8FBFF36F8F00DF00BF000008ED00E0F1
:100F00004FF0807340F8043C21F0010140F8081CC8
:100F1000034B40F80C3C40F8202C4038704700BF91
:100F2000C10E0008000000000000000000000000EA
:100F3000074B19680868B0E8F00F80F30988BFF321
:100F40006F8F4FF0000080F311884EF00D0E704748
:100F5000240000204FF0BF0383F31188BFF36F8F8D
:100F6000BFF34F8F024A136801331360704700BF0D
:100F700004000020034A1368013B13600BB983F39C
:100F800011887047040000200000000000000000ED
:100F9000EFF30980BFF36F8F0D4B1A6820E9F00F54
:100FA00010602DE908404FF0BF0080F31188FFF773
:100FB0008DFE4FF0000080F31188BDE808401968ED
:100FC0000868B0E8F00F80F30988BFF36F8F7047AF
:100FD0002400002008B54FF0BF0383F31188BFF34E
:100FE0006F8FBFF34F8FFFF70DFD28B14FF0E02358
:100FF0004FF08052C3F8042D002383F3118808BDFD
:101000004FF0E02300221A619A61024A5A610722D6
:101010001A6170473F19010010B54FF0E023D3F873
:10102000202D42F47F02C3F8202DD3F8202D42F06A
:101030007F42C3F8202DFFF7E3FF0024044B1C6020
:10104000FFF74EFFFFF742FEFFF73AFF204610BDC5
:1010500004000020124A12F0070F1ED0D11D21F00B
:101060000701C1F5005313440A460E4802600021EF
:1010700041601344083B23F007030B4803605960A9
:101080001960991A51601360084B1960084B196078
:10109000084B4FF000421A6070474FF40053E4E7EA
:1010A0002C010020402100202801002034210020B4
:1010B000302100202C210020154B1A461B6883424A
:1010C000FBD3516802EB010C844509D0416800EB69
:1010D000010C634509D00360904218D0106070473E
:1010E0004068014451601046F0E710B4094C246890
:1010F000A3420AD05B681944416013681B6803600F
:10110000904200D0106010BC70470460F8E7704750
:10111000402100202801002038B50446FFF76AFC72
:10112000304B1B68DBB1304B1B681C424AD1631E3D
:1011300013F10A0F4BD804F1080214F0070F05D081
:1011400022F007030833934243D91A46002A42D0BB
:10115000264B1B68934240D325490C6804E0FFF7F7
:1011600079FFE0E721461C466368934202D2236878
:10117000002BF7D11B4B1B68A34230D00D680835FC
:1011800023680B6063689B1A102B15D86268174997
:101190000B689B1A0B60174909688B4201D21549ED
:1011A0000B60114B1B681343636000232360124ADA
:1011B00013680133136006E0A01843606260FFF714
:1011C0007BFFE3E70025FFF7CDFC284638BD00256F
:1011D000F9E70025F7E70025F5E70025F3E7002507
:1011E000F1E700BF280100202C2100203021002041
:1011F00040210020342100203821002018B338B5C8
:101200000446A0F1080550F8043C0F4A1268134246
:1012100002D050F8081C01B138BD23EA020340F89F
:10122000043CFFF7E7FB54F8041C084A13680B441E
:1012300013602846FFF740FF054A13680133136027
:10124000FFF790FCE8E770472C21002030210020B8
:101250003C21002008B5044A536943F0010353615F
:10126000024B1B68984708BD00040140482100203C
:1012700008B5044A536943F002035361024B5B68AB
:10128000984708BD000401404821002008B5044AE1
:10129000536943F004035361024B9B68984708BDB0
:1012A000000401404821002008B5044A536943F076
:1012B00008035361024BDB68984708BD00040140F6
:1012C0004821002008B5044A536943F010035361D4
:1012D000024B1B69984708BD0004014048210020CB
:1012E00008B5214B5B6913F0200F07D01E4A5369E4
:1012F00043F0200353611D4B5B6998471A4B5B69B0
:1013000013F0400F07D0184A536943F0400353616C
:10131000164B9B699847144B5B6913F0800F07D0FD
:10132000114A536943F080035361104BDB699847BE
:101330000D4B5B6913F4807F07D00B4A536943F46C
:1013400080735361094B1B6A9847074B5B6913F421
:10135000007F07D0044A536943F400735361034B81
:101360005B6A984708BD00BF000401404821002087
:10137000024A536943F0010353617047000401407E
:1013800008B5024B1B69984708BD00BF84210020A7
:1013900008B5024B5B6A984708BD00BF8421002056
:1013A00008B5024B9B6B984708BD00BF8421002005
:1013B000B0F5007F42D020D8202818D802283FD38B
:1013C00002381E2811D8DFE800F03D10311010104F
:1013D00033101010101010103510101010101010C5
:1013E0001010101010101010370000207047402807
:1013F0002AD080282AD11C207047B0F5005F27D062
:1014000007D9B0F5804F29D0B0F5004F28D11C2066
:101410007047B0F5006F1DD0B0F5805F01D110208E
:101420007047B0F5806F17D10820704708207047CB
:101430000C2070471020704714207047042070471C
:101440000020704704207047182070470020704724
:10145000142070470C2070470020704718207047F8
:101460000020704770B505460C460888FF281CD838
:101470002E46FFF79DFF0F238340306820EA0300CC
:101480003060A3781A1FD2B2032A10D8043BE07848
:1014900040EA830000F00F052088FFF789FF3368DA
:1014A00005FA00F00343336070BD2E1DE1E7012B08
:1014B0000AD0082B12D0022B0AD0EB68228823EA2C
:1014C0000203EB600825E7E79B0003F00C05E3E768
:1014D000EB6822881343EB600825DDE70425DBE792
:1014E0008368194201D001207047002070471AB16B
:1014F000C3680B43C3607047C36823EA0103C3603A
:101500007047000008B50DE000231A4619460B4845
:101510000068FEF767FF0A4B1A780A4B1A70192009
:10152000FFF7BAFB4FF400410748FFF7D9FF044B20
:101530001870044B1B789842E6D1ECE7CC210020D0
:10154000C1210020C02100200010014008B508E0A2
:1015500000224FF400510C48FFF7C9FF1E20FFF78F
:101560009BFB0521094B1868FEF7CBFF0028F5D03F
:10157000074B1B78012BEBD101224FF4005102489D
:10158000FFF7B5FFEAE700BF00100140CC210020C3
:10159000C121002010B582B04FF40053ADF80430E3
:1015A00004238DF8063001238DF80730084C01A97B
:1015B0002046FFF757FF4FF40043ADF800300323F8
:1015C0008DF8023069462046FFF74CFF02B010BD8F
:1015D0000008014000B583B0134A936943F0040347
:1015E0009361FFF7D7FF114B1B680193012400940F
:1015F000002380220E490F48FFF794F90E4B1B6819
:10160000019302230093002380220C490C48FFF72A
:1016100089F9032200212046FEF7BCFE094B186021
:10162000FFF7B2F9FEE700BF00100240C42100201E
:101630002017000805150008C821002028170008F9
:101640004D150008CC2100200D488546AFF30080E1
:101650000C480D490D4A002302E0D458C45004330D
:10166000C4188C42F9D30A4A0A4C002301E01360E3
:101670000432A242FBD300F011F8FFF7ABFFFEE704
:101680000028002000000020080000203417000877
:1016900008000020D0210020FEE7000070B50026E1
:1016A0000C4D0D4C641BA410A64209D100F028F883
:1016B00000260A4D0A4C641BA410A64205D170BD39
:1016C00055F8043B98470136EEE755F8043B984738
:1016D0000136F2E72C1700082C1700082C17000819
:1016E000301700080A44914200F1FF3300D17047DF
:1016F00010B511F8014B914203F8014FF9D110BD1B
:10170000F8B500BFF8BC08BC9E467047F8B500BFEE
:08171000F8BC08BC9E467047BE
:1017180049444C4500000000427574746F6E000027
:041728004C454400E8
:04172C00550100085B
:04173000310100087B
:0817340004000000AAAAAAAA01
:040000050800164990
:00000001FF
